{"abi":[{"type":"constructor","inputs":[],"stateMutability":"nonpayable"},{"type":"function","name":"bid","inputs":[],"outputs":[],"stateMutability":"payable"},{"type":"function","name":"claimPrize","inputs":[],"outputs":[],"stateMutability":"nonpayable"},{"type":"function","name":"currentState","inputs":[],"outputs":[{"name":"","type":"uint8","internalType":"enum AuctionFSM.State"}],"stateMutability":"view"},{"type":"function","name":"endAuction","inputs":[],"outputs":[],"stateMutability":"nonpayable"},{"type":"function","name":"highestBid","inputs":[],"outputs":[{"name":"","type":"uint256","internalType":"uint256"}],"stateMutability":"view"},{"type":"function","name":"highestBidder","inputs":[],"outputs":[{"name":"","type":"address","internalType":"address"}],"stateMutability":"view"},{"type":"function","name":"owner","inputs":[],"outputs":[{"name":"","type":"address","internalType":"address"}],"stateMutability":"view"},{"type":"function","name":"startAuction","inputs":[],"outputs":[],"stateMutability":"nonpayable"}],"bytecode":{"object":"0x6080604052348015600e575f5ffd5b50335f60016101000a81548173ffffffffffffffffffffffffffffffffffffffff021916908373ffffffffffffffffffffffffffffffffffffffff1602179055505f5f5f6101000a81548160ff02191690836003811115606f57606e6078565b5b021790555060a5565b7f4e487b71000000000000000000000000000000000000000000000000000000005f52602160045260245ffd5b610b90806100b25f395ff3fe60806040526004361061007a575f3560e01c80638da5cb5b1161004d5780638da5cb5b146100de57806391f9015714610108578063d57bde7914610132578063fe67a54b1461015c5761007a565b80630c3f6acf1461007e5780631998aeef146100a85780636b64c769146100b257806370740ac9146100c8575b5f5ffd5b348015610089575f5ffd5b50610092610172565b60405161009f91906107d0565b60405180910390f35b6100b0610183565b005b3480156100bd575f5ffd5b506100c6610340565b005b3480156100d3575f5ffd5b506100dc61046d565b005b3480156100e9575f5ffd5b506100f26105df565b6040516100ff9190610828565b60405180910390f35b348015610113575f5ffd5b5061011c610604565b6040516101299190610828565b60405180910390f35b34801561013d575f5ffd5b50610146610629565b6040516101539190610859565b60405180910390f35b348015610167575f5ffd5b5061017061062f565b005b5f5f9054906101000a900460ff1681565b600160038111156101975761019661075d565b5b5f5f9054906101000a900460ff1660038111156101b7576101b661075d565b5b146101f7576040517f08c379a00000000000000000000000000000000000000000000000000000000081526004016101ee906108cc565b60405180910390fd5b600254341161023b576040517f08c379a000000000000000000000000000000000000000000000000000000000815260040161023290610934565b60405180910390fd5b5f73ffffffffffffffffffffffffffffffffffffffff1660015f9054906101000a900473ffffffffffffffffffffffffffffffffffffffff1673ffffffffffffffffffffffffffffffffffffffff16146102f75760015f9054906101000a900473ffffffffffffffffffffffffffffffffffffffff1673ffffffffffffffffffffffffffffffffffffffff166108fc60025490811502906040515f60405180830381858888f193505050501580156102f5573d5f5f3e3d5ffd5b505b3360015f6101000a81548173ffffffffffffffffffffffffffffffffffffffff021916908373ffffffffffffffffffffffffffffffffffffffff16021790555034600281905550565b5f60019054906101000a900473ffffffffffffffffffffffffffffffffffffffff1673ffffffffffffffffffffffffffffffffffffffff163373ffffffffffffffffffffffffffffffffffffffff16146103cf576040517f08c379a00000000000000000000000000000000000000000000000000000000081526004016103c69061099c565b60405180910390fd5b5f60038111156103e2576103e161075d565b5b5f5f9054906101000a900460ff1660038111156104025761040161075d565b5b14610442576040517f08c379a000000000000000000000000000000000000000000000000000000000815260040161043990610a04565b60405180910390fd5b60015f5f6101000a81548160ff021916908360038111156104665761046561075d565b5b0217905550565b600260038111156104815761048061075d565b5b5f5f9054906101000a900460ff1660038111156104a1576104a061075d565b5b146104e1576040517f08c379a00000000000000000000000000000000000000000000000000000000081526004016104d890610a6c565b60405180910390fd5b60015f9054906101000a900473ffffffffffffffffffffffffffffffffffffffff1673ffffffffffffffffffffffffffffffffffffffff163373ffffffffffffffffffffffffffffffffffffffff1614610570576040517f08c379a000000000000000000000000000000000000000000000000000000000815260040161056790610ad4565b60405180910390fd5b60035f5f6101000a81548160ff021916908360038111156105945761059361075d565b5b02179055503373ffffffffffffffffffffffffffffffffffffffff166108fc4790811502906040515f60405180830381858888f193505050501580156105dc573d5f5f3e3d5ffd5b50565b5f60019054906101000a900473ffffffffffffffffffffffffffffffffffffffff1681565b60015f9054906101000a900473ffffffffffffffffffffffffffffffffffffffff1681565b60025481565b5f60019054906101000a900473ffffffffffffffffffffffffffffffffffffffff1673ffffffffffffffffffffffffffffffffffffffff163373ffffffffffffffffffffffffffffffffffffffff16146106be576040517f08c379a00000000000000000000000000000000000000000000000000000000081526004016106b59061099c565b60405180910390fd5b600160038111156106d2576106d161075d565b5b5f5f9054906101000a900460ff1660038111156106f2576106f161075d565b5b14610732576040517f08c379a000000000000000000000000000000000000000000000000000000000815260040161072990610b3c565b60405180910390fd5b60025f5f6101000a81548160ff021916908360038111156107565761075561075d565b5b0217905550565b7f4e487b71000000000000000000000000000000000000000000000000000000005f52602160045260245ffd5b6004811061079b5761079a61075d565b5b50565b5f8190506107ab8261078a565b919050565b5f6107ba8261079e565b9050919050565b6107ca816107b0565b82525050565b5f6020820190506107e35f8301846107c1565b92915050565b5f73ffffffffffffffffffffffffffffffffffffffff82169050919050565b5f610812826107e9565b9050919050565b61082281610808565b82525050565b5f60208201905061083b5f830184610819565b92915050565b5f819050919050565b61085381610841565b82525050565b5f60208201905061086c5f83018461084a565b92915050565b5f82825260208201905092915050565b7f41756374696f6e206e6f742073746172746564000000000000000000000000005f82015250565b5f6108b6601383610872565b91506108c182610882565b602082019050919050565b5f6020820190508181035f8301526108e3816108aa565b9050919050565b7f42696420746f6f206c6f770000000000000000000000000000000000000000005f82015250565b5f61091e600b83610872565b9150610929826108ea565b602082019050919050565b5f6020820190508181035f83015261094b81610912565b9050919050565b7f4e6f74206f776e657200000000000000000000000000000000000000000000005f82015250565b5f610986600983610872565b915061099182610952565b602082019050919050565b5f6020820190508181035f8301526109b38161097a565b9050919050565b7f416c7265616479207374617274656400000000000000000000000000000000005f82015250565b5f6109ee600f83610872565b91506109f9826109ba565b602082019050919050565b5f6020820190508181035f830152610a1b816109e2565b9050919050565b7f41756374696f6e206e6f7420656e6465640000000000000000000000000000005f82015250565b5f610a56601183610872565b9150610a6182610a22565b602082019050919050565b5f6020820190508181035f830152610a8381610a4a565b9050919050565b7f4e6f742077696e6e6572000000000000000000000000000000000000000000005f82015250565b5f610abe600a83610872565b9150610ac982610a8a565b602082019050919050565b5f6020820190508181035f830152610aeb81610ab2565b9050919050565b7f4e6f7420616374697665000000000000000000000000000000000000000000005f82015250565b5f610b26600a83610872565b9150610b3182610af2565b602082019050919050565b5f6020820190508181035f830152610b5381610b1a565b905091905056fea26469706673582212201890844979fbf29b979a7db4cae4751e63e265d05e6a0fe198aac109be43405a64736f6c634300081c0033","linkReferences":{}},"methodIdentifiers":{"bid()":"1998aeef","claimPrize()":"70740ac9","currentState()":"0c3f6acf","endAuction()":"fe67a54b","highestBid()":"d57bde79","highestBidder()":"91f90157","owner()":"8da5cb5b","startAuction()":"6b64c769"},"id":21}